{
  "transactions": [
    {
      "hash": "0x1e97f17ad213e0f6edfeb4bbdcb5444e0868bb7ae8ba337487776fbaf7cbf132",
      "transactionType": "CALL",
      "contractName": null,
      "contractAddress": "0x779877a7b0d9e8603169ddbd7836e478b4624789",
      "function": "transferAndCall(address,uint256,bytes)",
      "arguments": [
        "0x9DdfaCa8183c41ad55329BdeeD9F6A8d53168B1B",
        "3000000000000000000",
        "0x7575f46ababcc52c13fe7fad5ed68199694582c6e34e473994e91705974d18b0"
      ],
      "transaction": {
        "from": "0x307c9b74cb5d249b1653755b7384e2e1e565da15",
        "to": "0x779877a7b0d9e8603169ddbd7836e478b4624789",
        "gas": "0x1c1ff",
        "value": "0x0",
        "input": "0x4000aea00000000000000000000000009ddfaca8183c41ad55329bdeed9f6a8d53168b1b00000000000000000000000000000000000000000000000029a2241af62c0000000000000000000000000000000000000000000000000000000000000000006000000000000000000000000000000000000000000000000000000000000000207575f46ababcc52c13fe7fad5ed68199694582c6e34e473994e91705974d18b0",
        "nonce": "0xd1",
        "chainId": "0xaa36a7"
      },
      "additionalContracts": [],
      "isFixedGasLimit": false
    }
  ],
  "receipts": [
    {
      "status": "0x1",
      "cumulativeGasUsed": "0xd26007",
      "logs": [
        {
          "address": "0x779877a7b0d9e8603169ddbd7836e478b4624789",
          "topics": [
            "0xddf252ad1be2c89b69c2b068fc378daa952ba7f163c4a11628f55a4df523b3ef",
            "0x000000000000000000000000307c9b74cb5d249b1653755b7384e2e1e565da15",
            "0x0000000000000000000000009ddfaca8183c41ad55329bdeed9f6a8d53168b1b"
          ],
          "data": "0x00000000000000000000000000000000000000000000000029a2241af62c0000",
          "blockHash": "0x6dcc25961a47de193cf63f98d3dddc8d5a2c0eacb0f7667e22747df4c3973e90",
          "blockNumber": "0x7034bf",
          "transactionHash": "0x1e97f17ad213e0f6edfeb4bbdcb5444e0868bb7ae8ba337487776fbaf7cbf132",
          "transactionIndex": "0x79",
          "logIndex": "0xc4",
          "removed": false
        },
        {
          "address": "0x779877a7b0d9e8603169ddbd7836e478b4624789",
          "topics": [
            "0xe19260aff97b920c7df27010903aeb9c8d2be5d310a2c67824cf3f15396e4c16",
            "0x000000000000000000000000307c9b74cb5d249b1653755b7384e2e1e565da15",
            "0x0000000000000000000000009ddfaca8183c41ad55329bdeed9f6a8d53168b1b"
          ],
          "data": "0x00000000000000000000000000000000000000000000000029a2241af62c0000000000000000000000000000000000000000000000000000000000000000004000000000000000000000000000000000000000000000000000000000000000207575f46ababcc52c13fe7fad5ed68199694582c6e34e473994e91705974d18b0",
          "blockHash": "0x6dcc25961a47de193cf63f98d3dddc8d5a2c0eacb0f7667e22747df4c3973e90",
          "blockNumber": "0x7034bf",
          "transactionHash": "0x1e97f17ad213e0f6edfeb4bbdcb5444e0868bb7ae8ba337487776fbaf7cbf132",
          "transactionIndex": "0x79",
          "logIndex": "0xc5",
          "removed": false
        },
        {
          "address": "0x9ddfaca8183c41ad55329bdeed9f6a8d53168b1b",
          "topics": [
            "0x1ced9348ff549fceab2ac57cd3a9de38edaaab274b725ee82c23e8fc8c4eec7a",
            "0x7575f46ababcc52c13fe7fad5ed68199694582c6e34e473994e91705974d18b0"
          ],
          "data": "0x000000000000000000000000000000000000000000000000000000000000000000000000000000000000000000000000000000000000000029a2241af62c0000",
          "blockHash": "0x6dcc25961a47de193cf63f98d3dddc8d5a2c0eacb0f7667e22747df4c3973e90",
          "blockNumber": "0x7034bf",
          "transactionHash": "0x1e97f17ad213e0f6edfeb4bbdcb5444e0868bb7ae8ba337487776fbaf7cbf132",
          "transactionIndex": "0x79",
          "logIndex": "0xc6",
          "removed": false
        }
      ],
      "logsBloom": "0x00000004000000000000000000000000000000000020000000000000020000000000000080000000000000000000000000000000000000000000000000000000000000000000000000000008000000000000000000000000000420000020000008020000000000000000000040000000000000000000000000000010000040000000000000000000000000010000800000000020000000000000000000000000000080000000000000000000010000000000010000000000000004000000000000000002000000000000000000000000000000000000000100000000000000000010000000000000800000000000000000000000000000000000000000000000",
      "type": "0x2",
      "transactionHash": "0x1e97f17ad213e0f6edfeb4bbdcb5444e0868bb7ae8ba337487776fbaf7cbf132",
      "transactionIndex": "0x79",
      "blockHash": "0x6dcc25961a47de193cf63f98d3dddc8d5a2c0eacb0f7667e22747df4c3973e90",
      "blockNumber": "0x7034bf",
      "gasUsed": "0x133b1",
      "effectiveGasPrice": "0x5cfff7be",
      "from": "0x307c9b74cb5d249b1653755b7384e2e1e565da15",
      "to": "0x779877a7b0d9e8603169ddbd7836e478b4624789",
      "contractAddress": null
    }
  ],
  "libraries": [],
  "pending": [],
  "returns": {},
  "timestamp": 1735150429,
  "chain": 11155111,
  "commit": "b72d552"
}