{
  "transactions": [
    {
      "hash": "0x0350e6e6b1525f5f2d9cf4596648a8868cc3b63e426fbc914de7a9f2c7d8296b",
      "transactionType": "CALL",
      "contractName": null,
      "contractAddress": "0x9ddfaca8183c41ad55329bdeed9f6a8d53168b1b",
      "function": "addConsumer(uint256,address)",
      "arguments": [
        "42810492396060916410932707323108635811152751988762420186744515346844390614579",
        "0x5E8C62F9F581386557cF45c93df8E4dB28D016fa"
      ],
      "transaction": {
        "from": "0x2d29c19a7f61ce9bff7128e320698994795b6a04",
        "to": "0x9ddfaca8183c41ad55329bdeed9f6a8d53168b1b",
        "gas": "0x21fc9",
        "value": "0x0",
        "input": "0xbec4c08c5ea5e149182193cb9be6adb85da7812f75df7a9dc55036c53be6d3a76ae566330000000000000000000000005e8c62f9f581386557cf45c93df8e4db28d016fa",
        "nonce": "0x1b",
        "chainId": "0xaa36a7"
      },
      "additionalContracts": [],
      "isFixedGasLimit": false
    }
  ],
  "receipts": [
    {
      "status": "0x1",
      "cumulativeGasUsed": "0xcc3b86",
      "logs": [
        {
          "address": "0x9ddfaca8183c41ad55329bdeed9f6a8d53168b1b",
          "topics": [
            "0x1e980d04aa7648e205713e5e8ea3808672ac163d10936d36f91b2c88ac1575e1",
            "0x5ea5e149182193cb9be6adb85da7812f75df7a9dc55036c53be6d3a76ae56633"
          ],
          "data": "0x0000000000000000000000005e8c62f9f581386557cf45c93df8e4db28d016fa",
          "blockHash": "0x2ee91b06e600fe9374550755ca4adfcb25218ffe9d1888e8c79bb998f2cb9192",
          "blockNumber": "0x709cc3",
          "transactionHash": "0x0350e6e6b1525f5f2d9cf4596648a8868cc3b63e426fbc914de7a9f2c7d8296b",
          "transactionIndex": "0x50",
          "logIndex": "0xc3",
          "removed": false
        }
      ],
      "logsBloom": "0x00004000000000000000000000000080000000000020000000000000000000000000000000000000000000000000000000000000000000000000000000000000000000000000000200000000000000000000000000000001000000000000000008000000000000000000000000000000000000000000000000002000000000000000000000000000000000010000000000000000000000000000000000000000000000000000000000000000000000000000000000000000000000000000000000000000000000000000020000000000000000000000000000000000000000000000000000000000000000000000000000000000000000000000000000000000",
      "type": "0x2",
      "transactionHash": "0x0350e6e6b1525f5f2d9cf4596648a8868cc3b63e426fbc914de7a9f2c7d8296b",
      "transactionIndex": "0x50",
      "blockHash": "0x2ee91b06e600fe9374550755ca4adfcb25218ffe9d1888e8c79bb998f2cb9192",
      "blockNumber": "0x709cc3",
      "gasUsed": "0x173d2",
      "effectiveGasPrice": "0x1d2b96fbc",
      "from": "0x2d29c19a7f61ce9bff7128e320698994795b6a04",
      "to": "0x9ddfaca8183c41ad55329bdeed9f6a8d53168b1b",
      "contractAddress": null
    }
  ],
  "libraries": [],
  "pending": [],
  "returns": {},
  "timestamp": 1735491408,
  "chain": 11155111,
  "commit": "5edb586"
}