{
  "transactions": [
    {
      "hash": "0xc7548c6b06f9db6e9dd6e249a2a923ecdacaa5ab20dce8efd29db6dc743167cd",
      "transactionType": "CALL",
      "contractName": null,
      "contractAddress": "0x779877a7b0d9e8603169ddbd7836e478b4624789",
      "function": "transferAndCall(address,uint256,bytes)",
      "arguments": [
        "0x9DdfaCa8183c41ad55329BdeeD9F6A8d53168B1B",
        "3000000000000000000",
        "0x70a648750952765650eb5215100155d7125a3e3b51cf0ee1deed0e7db871d434"
      ],
      "transaction": {
        "from": "0x307c9b74cb5d249b1653755b7384e2e1e565da15",
        "to": "0x779877a7b0d9e8603169ddbd7836e478b4624789",
        "gas": "0x14cbb",
        "value": "0x0",
        "input": "0x4000aea00000000000000000000000009ddfaca8183c41ad55329bdeed9f6a8d53168b1b00000000000000000000000000000000000000000000000029a2241af62c00000000000000000000000000000000000000000000000000000000000000000060000000000000000000000000000000000000000000000000000000000000002070a648750952765650eb5215100155d7125a3e3b51cf0ee1deed0e7db871d434",
        "nonce": "0xd8",
        "chainId": "0xaa36a7"
      },
      "additionalContracts": [],
      "isFixedGasLimit": false
    }
  ],
  "receipts": [
    {
      "status": "0x1",
      "cumulativeGasUsed": "0x9d7584",
      "logs": [
        {
          "address": "0x779877a7b0d9e8603169ddbd7836e478b4624789",
          "topics": [
            "0xddf252ad1be2c89b69c2b068fc378daa952ba7f163c4a11628f55a4df523b3ef",
            "0x000000000000000000000000307c9b74cb5d249b1653755b7384e2e1e565da15",
            "0x0000000000000000000000009ddfaca8183c41ad55329bdeed9f6a8d53168b1b"
          ],
          "data": "0x00000000000000000000000000000000000000000000000029a2241af62c0000",
          "blockHash": "0xda62aa6b570dd9aa862254fd7b7706018237dba6e0dc5fab9edd26ba83dc5152",
          "blockNumber": "0x70352b",
          "transactionHash": "0xc7548c6b06f9db6e9dd6e249a2a923ecdacaa5ab20dce8efd29db6dc743167cd",
          "transactionIndex": "0x53",
          "logIndex": "0x87",
          "removed": false
        },
        {
          "address": "0x779877a7b0d9e8603169ddbd7836e478b4624789",
          "topics": [
            "0xe19260aff97b920c7df27010903aeb9c8d2be5d310a2c67824cf3f15396e4c16",
            "0x000000000000000000000000307c9b74cb5d249b1653755b7384e2e1e565da15",
            "0x0000000000000000000000009ddfaca8183c41ad55329bdeed9f6a8d53168b1b"
          ],
          "data": "0x00000000000000000000000000000000000000000000000029a2241af62c00000000000000000000000000000000000000000000000000000000000000000040000000000000000000000000000000000000000000000000000000000000002070a648750952765650eb5215100155d7125a3e3b51cf0ee1deed0e7db871d434",
          "blockHash": "0xda62aa6b570dd9aa862254fd7b7706018237dba6e0dc5fab9edd26ba83dc5152",
          "blockNumber": "0x70352b",
          "transactionHash": "0xc7548c6b06f9db6e9dd6e249a2a923ecdacaa5ab20dce8efd29db6dc743167cd",
          "transactionIndex": "0x53",
          "logIndex": "0x88",
          "removed": false
        },
        {
          "address": "0x9ddfaca8183c41ad55329bdeed9f6a8d53168b1b",
          "topics": [
            "0x1ced9348ff549fceab2ac57cd3a9de38edaaab274b725ee82c23e8fc8c4eec7a",
            "0x70a648750952765650eb5215100155d7125a3e3b51cf0ee1deed0e7db871d434"
          ],
          "data": "0x000000000000000000000000000000000000000000000000c249fdd327780000000000000000000000000000000000000000000000000000ebec21ee1da40000",
          "blockHash": "0xda62aa6b570dd9aa862254fd7b7706018237dba6e0dc5fab9edd26ba83dc5152",
          "blockNumber": "0x70352b",
          "transactionHash": "0xc7548c6b06f9db6e9dd6e249a2a923ecdacaa5ab20dce8efd29db6dc743167cd",
          "transactionIndex": "0x53",
          "logIndex": "0x89",
          "removed": false
        }
      ],
      "logsBloom": "0x00000004000000000000000000000000000000000020000000000200020000000000000000000000000000000000000000000000000000000000000000000000000000000000000000000008000000000000000000000000000020000020000008020000000000000000000040000000000000000000000000000010000040000000000000000000000000010000800000000020000000000000000000000000002000000000000000000000010000000000010000000000000004000000000000000002000000000000000100000000000000000000000100000000000000000010000000000000800000000000000000000000000000000000000000000000",
      "type": "0x2",
      "transactionHash": "0xc7548c6b06f9db6e9dd6e249a2a923ecdacaa5ab20dce8efd29db6dc743167cd",
      "transactionIndex": "0x53",
      "blockHash": "0xda62aa6b570dd9aa862254fd7b7706018237dba6e0dc5fab9edd26ba83dc5152",
      "blockNumber": "0x70352b",
      "gasUsed": "0xf0e5",
      "effectiveGasPrice": "0x331d998c",
      "from": "0x307c9b74cb5d249b1653755b7384e2e1e565da15",
      "to": "0x779877a7b0d9e8603169ddbd7836e478b4624789",
      "contractAddress": null
    }
  ],
  "libraries": [],
  "pending": [],
  "returns": {},
  "timestamp": 1735151820,
  "chain": 11155111,
  "commit": "b72d552"
}