{
  "transactions": [
    {
      "hash": "0x2b8ddbe17e19a366640f968d0a1cdc0817483c1973317a458f99febc58581767",
      "transactionType": "CALL",
      "contractName": null,
      "contractAddress": "0x779877a7b0d9e8603169ddbd7836e478b4624789",
      "function": "transferAndCall(address,uint256,bytes)",
      "arguments": [
        "0x9DdfaCa8183c41ad55329BdeeD9F6A8d53168B1B",
        "3000000000000000000",
        "0x70a648750952765650eb5215100155d7125a3e3b51cf0ee1deed0e7db871d434"
      ],
      "transaction": {
        "from": "0x307c9b74cb5d249b1653755b7384e2e1e565da15",
        "to": "0x779877a7b0d9e8603169ddbd7836e478b4624789",
        "gas": "0x14cbb",
        "value": "0x0",
        "input": "0x4000aea00000000000000000000000009ddfaca8183c41ad55329bdeed9f6a8d53168b1b00000000000000000000000000000000000000000000000029a2241af62c00000000000000000000000000000000000000000000000000000000000000000060000000000000000000000000000000000000000000000000000000000000002070a648750952765650eb5215100155d7125a3e3b51cf0ee1deed0e7db871d434",
        "nonce": "0xd7",
        "chainId": "0xaa36a7"
      },
      "additionalContracts": [],
      "isFixedGasLimit": false
    }
  ],
  "receipts": [
    {
      "status": "0x1",
      "cumulativeGasUsed": "0x176ec50",
      "logs": [
        {
          "address": "0x779877a7b0d9e8603169ddbd7836e478b4624789",
          "topics": [
            "0xddf252ad1be2c89b69c2b068fc378daa952ba7f163c4a11628f55a4df523b3ef",
            "0x000000000000000000000000307c9b74cb5d249b1653755b7384e2e1e565da15",
            "0x0000000000000000000000009ddfaca8183c41ad55329bdeed9f6a8d53168b1b"
          ],
          "data": "0x00000000000000000000000000000000000000000000000029a2241af62c0000",
          "blockHash": "0x504d3475ae849e784d5e9431f7a0efe515f50683c3c8830060d5043c80dca0e5",
          "blockNumber": "0x70351c",
          "transactionHash": "0x2b8ddbe17e19a366640f968d0a1cdc0817483c1973317a458f99febc58581767",
          "transactionIndex": "0x92",
          "logIndex": "0xd5",
          "removed": false
        },
        {
          "address": "0x779877a7b0d9e8603169ddbd7836e478b4624789",
          "topics": [
            "0xe19260aff97b920c7df27010903aeb9c8d2be5d310a2c67824cf3f15396e4c16",
            "0x000000000000000000000000307c9b74cb5d249b1653755b7384e2e1e565da15",
            "0x0000000000000000000000009ddfaca8183c41ad55329bdeed9f6a8d53168b1b"
          ],
          "data": "0x00000000000000000000000000000000000000000000000029a2241af62c00000000000000000000000000000000000000000000000000000000000000000040000000000000000000000000000000000000000000000000000000000000002070a648750952765650eb5215100155d7125a3e3b51cf0ee1deed0e7db871d434",
          "blockHash": "0x504d3475ae849e784d5e9431f7a0efe515f50683c3c8830060d5043c80dca0e5",
          "blockNumber": "0x70351c",
          "transactionHash": "0x2b8ddbe17e19a366640f968d0a1cdc0817483c1973317a458f99febc58581767",
          "transactionIndex": "0x92",
          "logIndex": "0xd6",
          "removed": false
        },
        {
          "address": "0x9ddfaca8183c41ad55329bdeed9f6a8d53168b1b",
          "topics": [
            "0x1ced9348ff549fceab2ac57cd3a9de38edaaab274b725ee82c23e8fc8c4eec7a",
            "0x70a648750952765650eb5215100155d7125a3e3b51cf0ee1deed0e7db871d434"
          ],
          "data": "0x00000000000000000000000000000000000000000000000098a7d9b8314c0000000000000000000000000000000000000000000000000000c249fdd327780000",
          "blockHash": "0x504d3475ae849e784d5e9431f7a0efe515f50683c3c8830060d5043c80dca0e5",
          "blockNumber": "0x70351c",
          "transactionHash": "0x2b8ddbe17e19a366640f968d0a1cdc0817483c1973317a458f99febc58581767",
          "transactionIndex": "0x92",
          "logIndex": "0xd7",
          "removed": false
        }
      ],
      "logsBloom": "0x00000004000000000000000000000000000000000020000000000200020000000000000000000000000000000000000000000000000000000000000000000000000000000000000000000008000000000000000000000000000020000020000008020000000000000000000040000000000000000000000000000010000040000000000000000000000000010000800000000020000000000000000000000000002000000000000000000000010000000000010000000000000004000000000000000002000000000000000100000000000000000000000100000000000000000010000000000000800000000000000000000000000000000000000000000000",
      "type": "0x2",
      "transactionHash": "0x2b8ddbe17e19a366640f968d0a1cdc0817483c1973317a458f99febc58581767",
      "transactionIndex": "0x92",
      "blockHash": "0x504d3475ae849e784d5e9431f7a0efe515f50683c3c8830060d5043c80dca0e5",
      "blockNumber": "0x70351c",
      "gasUsed": "0xf0e5",
      "effectiveGasPrice": "0x36b2d91e",
      "from": "0x307c9b74cb5d249b1653755b7384e2e1e565da15",
      "to": "0x779877a7b0d9e8603169ddbd7836e478b4624789",
      "contractAddress": null
    }
  ],
  "libraries": [],
  "pending": [],
  "returns": {},
  "timestamp": 1735151628,
  "chain": 11155111,
  "commit": "b72d552"
}