{
  "transactions": [
    {
      "hash": "0xd11407e7dd2f61460c83e616d62c794e809f0dd0fe83498053bb14fc00ec3393",
      "transactionType": "CALL",
      "contractName": null,
      "contractAddress": "0x779877a7b0d9e8603169ddbd7836e478b4624789",
      "function": "transferAndCall(address,uint256,bytes)",
      "arguments": [
        "0x9DdfaCa8183c41ad55329BdeeD9F6A8d53168B1B",
        "3000000000000000000",
        "0x5ea5e149182193cb9be6adb85da7812f75df7a9dc55036c53be6d3a76ae56633"
      ],
      "transaction": {
        "from": "0x2d29c19a7f61ce9bff7128e320698994795b6a04",
        "to": "0x779877a7b0d9e8603169ddbd7836e478b4624789",
        "gas": "0x14cbb",
        "value": "0x0",
        "input": "0x4000aea00000000000000000000000009ddfaca8183c41ad55329bdeed9f6a8d53168b1b00000000000000000000000000000000000000000000000029a2241af62c0000000000000000000000000000000000000000000000000000000000000000006000000000000000000000000000000000000000000000000000000000000000205ea5e149182193cb9be6adb85da7812f75df7a9dc55036c53be6d3a76ae56633",
        "nonce": "0x19",
        "chainId": "0xaa36a7"
      },
      "additionalContracts": [],
      "isFixedGasLimit": false
    }
  ],
  "receipts": [
    {
      "status": "0x1",
      "cumulativeGasUsed": "0x108a0d1",
      "logs": [
        {
          "address": "0x779877a7b0d9e8603169ddbd7836e478b4624789",
          "topics": [
            "0xddf252ad1be2c89b69c2b068fc378daa952ba7f163c4a11628f55a4df523b3ef",
            "0x0000000000000000000000002d29c19a7f61ce9bff7128e320698994795b6a04",
            "0x0000000000000000000000009ddfaca8183c41ad55329bdeed9f6a8d53168b1b"
          ],
          "data": "0x00000000000000000000000000000000000000000000000029a2241af62c0000",
          "blockHash": "0xcf5c05033351dd8c13429587f9ce35c1a31031e94744d99b017379d5b1384be6",
          "blockNumber": "0x709c17",
          "transactionHash": "0xd11407e7dd2f61460c83e616d62c794e809f0dd0fe83498053bb14fc00ec3393",
          "transactionIndex": "0x7f",
          "logIndex": "0x119",
          "removed": false
        },
        {
          "address": "0x779877a7b0d9e8603169ddbd7836e478b4624789",
          "topics": [
            "0xe19260aff97b920c7df27010903aeb9c8d2be5d310a2c67824cf3f15396e4c16",
            "0x0000000000000000000000002d29c19a7f61ce9bff7128e320698994795b6a04",
            "0x0000000000000000000000009ddfaca8183c41ad55329bdeed9f6a8d53168b1b"
          ],
          "data": "0x00000000000000000000000000000000000000000000000029a2241af62c0000000000000000000000000000000000000000000000000000000000000000004000000000000000000000000000000000000000000000000000000000000000205ea5e149182193cb9be6adb85da7812f75df7a9dc55036c53be6d3a76ae56633",
          "blockHash": "0xcf5c05033351dd8c13429587f9ce35c1a31031e94744d99b017379d5b1384be6",
          "blockNumber": "0x709c17",
          "transactionHash": "0xd11407e7dd2f61460c83e616d62c794e809f0dd0fe83498053bb14fc00ec3393",
          "transactionIndex": "0x7f",
          "logIndex": "0x11a",
          "removed": false
        },
        {
          "address": "0x9ddfaca8183c41ad55329bdeed9f6a8d53168b1b",
          "topics": [
            "0x1ced9348ff549fceab2ac57cd3a9de38edaaab274b725ee82c23e8fc8c4eec7a",
            "0x5ea5e149182193cb9be6adb85da7812f75df7a9dc55036c53be6d3a76ae56633"
          ],
          "data": "0x00000000000000000000000000000000000000000000000029a2241af62c000000000000000000000000000000000000000000000000000053444835ec580000",
          "blockHash": "0xcf5c05033351dd8c13429587f9ce35c1a31031e94744d99b017379d5b1384be6",
          "blockNumber": "0x709c17",
          "transactionHash": "0xd11407e7dd2f61460c83e616d62c794e809f0dd0fe83498053bb14fc00ec3393",
          "transactionIndex": "0x7f",
          "logIndex": "0x11b",
          "removed": false
        }
      ],
      "logsBloom": "0x00004004000000000000000000000000000000000020000000000000020000000000000000080000000000400000000000000000000000000000000000000000000000000000000200000008000000000000000000000000000020000020000008000000000000000000000000000000000000000000000000000010000040000000000000000000000000010000800000000020000000000000000000000000000000000000000000000000010000000000000000000000000004000000000000000002000000000000020000000000000000000000000100000000000000000010000000000000800000010000000000000000000000000000000000000000",
      "type": "0x2",
      "transactionHash": "0xd11407e7dd2f61460c83e616d62c794e809f0dd0fe83498053bb14fc00ec3393",
      "transactionIndex": "0x7f",
      "blockHash": "0xcf5c05033351dd8c13429587f9ce35c1a31031e94744d99b017379d5b1384be6",
      "blockNumber": "0x709c17",
      "gasUsed": "0xf0e5",
      "effectiveGasPrice": "0x1fa610b77",
      "from": "0x2d29c19a7f61ce9bff7128e320698994795b6a04",
      "to": "0x779877a7b0d9e8603169ddbd7836e478b4624789",
      "contractAddress": null
    }
  ],
  "libraries": [],
  "pending": [],
  "returns": {},
  "timestamp": 1735489273,
  "chain": 11155111,
  "commit": "5edb586"
}