{
  "transactions": [
    {
      "hash": "0xce2bc989a903e38877c82f0e7fe934cd939fd5cb435fd1f27f5d1dfa04502c22",
      "transactionType": "CALL",
      "contractName": null,
      "contractAddress": "0x779877a7b0d9e8603169ddbd7836e478b4624789",
      "function": "transferAndCall(address,uint256,bytes)",
      "arguments": [
        "0x9DdfaCa8183c41ad55329BdeeD9F6A8d53168B1B",
        "3000000000000000000",
        "0x70a648750952765650eb5215100155d7125a3e3b51cf0ee1deed0e7db871d434"
      ],
      "transaction": {
        "from": "0x307c9b74cb5d249b1653755b7384e2e1e565da15",
        "to": "0x779877a7b0d9e8603169ddbd7836e478b4624789",
        "gas": "0x14cbb",
        "value": "0x0",
        "input": "0x4000aea00000000000000000000000009ddfaca8183c41ad55329bdeed9f6a8d53168b1b00000000000000000000000000000000000000000000000029a2241af62c00000000000000000000000000000000000000000000000000000000000000000060000000000000000000000000000000000000000000000000000000000000002070a648750952765650eb5215100155d7125a3e3b51cf0ee1deed0e7db871d434",
        "nonce": "0xd9",
        "chainId": "0xaa36a7"
      },
      "additionalContracts": [],
      "isFixedGasLimit": false
    }
  ],
  "receipts": [
    {
      "status": "0x1",
      "cumulativeGasUsed": "0x1d2b7e8",
      "logs": [
        {
          "address": "0x779877a7b0d9e8603169ddbd7836e478b4624789",
          "topics": [
            "0xddf252ad1be2c89b69c2b068fc378daa952ba7f163c4a11628f55a4df523b3ef",
            "0x000000000000000000000000307c9b74cb5d249b1653755b7384e2e1e565da15",
            "0x0000000000000000000000009ddfaca8183c41ad55329bdeed9f6a8d53168b1b"
          ],
          "data": "0x00000000000000000000000000000000000000000000000029a2241af62c0000",
          "blockHash": "0xf880c67ea570b7697ce1003613d7348c6588996ab317826cc6be3e03978fbc97",
          "blockNumber": "0x703563",
          "transactionHash": "0xce2bc989a903e38877c82f0e7fe934cd939fd5cb435fd1f27f5d1dfa04502c22",
          "transactionIndex": "0x5b",
          "logIndex": "0x163",
          "removed": false
        },
        {
          "address": "0x779877a7b0d9e8603169ddbd7836e478b4624789",
          "topics": [
            "0xe19260aff97b920c7df27010903aeb9c8d2be5d310a2c67824cf3f15396e4c16",
            "0x000000000000000000000000307c9b74cb5d249b1653755b7384e2e1e565da15",
            "0x0000000000000000000000009ddfaca8183c41ad55329bdeed9f6a8d53168b1b"
          ],
          "data": "0x00000000000000000000000000000000000000000000000029a2241af62c00000000000000000000000000000000000000000000000000000000000000000040000000000000000000000000000000000000000000000000000000000000002070a648750952765650eb5215100155d7125a3e3b51cf0ee1deed0e7db871d434",
          "blockHash": "0xf880c67ea570b7697ce1003613d7348c6588996ab317826cc6be3e03978fbc97",
          "blockNumber": "0x703563",
          "transactionHash": "0xce2bc989a903e38877c82f0e7fe934cd939fd5cb435fd1f27f5d1dfa04502c22",
          "transactionIndex": "0x5b",
          "logIndex": "0x164",
          "removed": false
        },
        {
          "address": "0x9ddfaca8183c41ad55329bdeed9f6a8d53168b1b",
          "topics": [
            "0x1ced9348ff549fceab2ac57cd3a9de38edaaab274b725ee82c23e8fc8c4eec7a",
            "0x70a648750952765650eb5215100155d7125a3e3b51cf0ee1deed0e7db871d434"
          ],
          "data": "0x000000000000000000000000000000000000000000000000ebec21ee1da40000000000000000000000000000000000000000000000000001158e460913d00000",
          "blockHash": "0xf880c67ea570b7697ce1003613d7348c6588996ab317826cc6be3e03978fbc97",
          "blockNumber": "0x703563",
          "transactionHash": "0xce2bc989a903e38877c82f0e7fe934cd939fd5cb435fd1f27f5d1dfa04502c22",
          "transactionIndex": "0x5b",
          "logIndex": "0x165",
          "removed": false
        }
      ],
      "logsBloom": "0x00000004000000000000000000000000000000000020000000000200020000000000000000000000000000000000000000000000000000000000000000000000000000000000000000000008000000000000000000000000000020000020000008020000000000000000000040000000000000000000000000000010000040000000000000000000000000010000800000000020000000000000000000000000002000000000000000000000010000000000010000000000000004000000000000000002000000000000000100000000000000000000000100000000000000000010000000000000800000000000000000000000000000000000000000000000",
      "type": "0x2",
      "transactionHash": "0xce2bc989a903e38877c82f0e7fe934cd939fd5cb435fd1f27f5d1dfa04502c22",
      "transactionIndex": "0x5b",
      "blockHash": "0xf880c67ea570b7697ce1003613d7348c6588996ab317826cc6be3e03978fbc97",
      "blockNumber": "0x703563",
      "gasUsed": "0xf0e5",
      "effectiveGasPrice": "0x4125c06b",
      "from": "0x307c9b74cb5d249b1653755b7384e2e1e565da15",
      "to": "0x779877a7b0d9e8603169ddbd7836e478b4624789",
      "contractAddress": null
    }
  ],
  "libraries": [],
  "pending": [],
  "returns": {},
  "timestamp": 1735152541,
  "chain": 11155111,
  "commit": "b72d552"
}