{
  "transactions": [
    {
      "hash": "0xf8eef1d6a6f466c69981535890a5b3bb098721be1b6bbc905eae258bbfdc8340",
      "transactionType": "CALL",
      "contractName": null,
      "contractAddress": "0x779877a7b0d9e8603169ddbd7836e478b4624789",
      "function": "transferAndCall(address,uint256,bytes)",
      "arguments": [
        "0x9DdfaCa8183c41ad55329BdeeD9F6A8d53168B1B",
        "3000000000000000000",
        "0x97cac659f73021b9b783024af4161215569ee3a5eef2463adc321980b801ea25"
      ],
      "transaction": {
        "from": "0x8c244f0b2164e6a3bed74ab429b0ebd661bb14ca",
        "to": "0x779877a7b0d9e8603169ddbd7836e478b4624789",
        "gas": "0x14cbb",
        "value": "0x0",
        "input": "0x4000aea00000000000000000000000009ddfaca8183c41ad55329bdeed9f6a8d53168b1b00000000000000000000000000000000000000000000000029a2241af62c00000000000000000000000000000000000000000000000000000000000000000060000000000000000000000000000000000000000000000000000000000000002097cac659f73021b9b783024af4161215569ee3a5eef2463adc321980b801ea25",
        "nonce": "0x24c",
        "chainId": "0xaa36a7"
      },
      "additionalContracts": [],
      "isFixedGasLimit": false
    }
  ],
  "receipts": [
    {
      "status": "0x1",
      "cumulativeGasUsed": "0xabf270",
      "logs": [
        {
          "address": "0x779877a7b0d9e8603169ddbd7836e478b4624789",
          "topics": [
            "0xddf252ad1be2c89b69c2b068fc378daa952ba7f163c4a11628f55a4df523b3ef",
            "0x0000000000000000000000008c244f0b2164e6a3bed74ab429b0ebd661bb14ca",
            "0x0000000000000000000000009ddfaca8183c41ad55329bdeed9f6a8d53168b1b"
          ],
          "data": "0x00000000000000000000000000000000000000000000000029a2241af62c0000",
          "blockHash": "0xeac9d11a521cd89547ad36425197b8918f0f47be719f6f29798d3d0db19c354f",
          "blockNumber": "0x709b2f",
          "transactionHash": "0xf8eef1d6a6f466c69981535890a5b3bb098721be1b6bbc905eae258bbfdc8340",
          "transactionIndex": "0x57",
          "logIndex": "0xdb",
          "removed": false
        },
        {
          "address": "0x779877a7b0d9e8603169ddbd7836e478b4624789",
          "topics": [
            "0xe19260aff97b920c7df27010903aeb9c8d2be5d310a2c67824cf3f15396e4c16",
            "0x0000000000000000000000008c244f0b2164e6a3bed74ab429b0ebd661bb14ca",
            "0x0000000000000000000000009ddfaca8183c41ad55329bdeed9f6a8d53168b1b"
          ],
          "data": "0x00000000000000000000000000000000000000000000000029a2241af62c00000000000000000000000000000000000000000000000000000000000000000040000000000000000000000000000000000000000000000000000000000000002097cac659f73021b9b783024af4161215569ee3a5eef2463adc321980b801ea25",
          "blockHash": "0xeac9d11a521cd89547ad36425197b8918f0f47be719f6f29798d3d0db19c354f",
          "blockNumber": "0x709b2f",
          "transactionHash": "0xf8eef1d6a6f466c69981535890a5b3bb098721be1b6bbc905eae258bbfdc8340",
          "transactionIndex": "0x57",
          "logIndex": "0xdc",
          "removed": false
        },
        {
          "address": "0x9ddfaca8183c41ad55329bdeed9f6a8d53168b1b",
          "topics": [
            "0x1ced9348ff549fceab2ac57cd3a9de38edaaab274b725ee82c23e8fc8c4eec7a",
            "0x97cac659f73021b9b783024af4161215569ee3a5eef2463adc321980b801ea25"
          ],
          "data": "0x000000000000000000000000000000000000000000000003e97b0ed8ea82a80f000000000000000000000000000000000000000000000004131d32f3e0aea80f",
          "blockHash": "0xeac9d11a521cd89547ad36425197b8918f0f47be719f6f29798d3d0db19c354f",
          "blockNumber": "0x709b2f",
          "transactionHash": "0xf8eef1d6a6f466c69981535890a5b3bb098721be1b6bbc905eae258bbfdc8340",
          "transactionIndex": "0x57",
          "logIndex": "0xdd",
          "removed": false
        }
      ],
      "logsBloom": "0x00000004000000000000000000000000000000000020000000000000020000000000000000000000000000000000000100000000000000000000000000000000000000000000000000000008000000000000000000000000000021000020000008000000000000000000000000000000000000000000000000000010000040000000000000000000000000010000800000000020000000000000400000000000000000000000000000000000010000000000000000000000000404000000000000000202000000000000000000000000000000000000000100000000000400000010000000000000800000000000000000000000000000000000000000000000",
      "type": "0x2",
      "transactionHash": "0xf8eef1d6a6f466c69981535890a5b3bb098721be1b6bbc905eae258bbfdc8340",
      "transactionIndex": "0x57",
      "blockHash": "0xeac9d11a521cd89547ad36425197b8918f0f47be719f6f29798d3d0db19c354f",
      "blockNumber": "0x709b2f",
      "gasUsed": "0xf0e5",
      "effectiveGasPrice": "0x1d7e59bdc",
      "from": "0x8c244f0b2164e6a3bed74ab429b0ebd661bb14ca",
      "to": "0x779877a7b0d9e8603169ddbd7836e478b4624789",
      "contractAddress": null
    }
  ],
  "libraries": [],
  "pending": [],
  "returns": {},
  "timestamp": 1735486248,
  "chain": 11155111,
  "commit": "ca383a7"
}